{
    "_format": "hh-sol-artifact-1",
    "contractName": "Events",
    "sourceName": "contracts/Events.sol",
    "abi": [
        {
            "anonymous": false,
            "inputs": [
                {
                    "indexed": false,
                    "internalType": "bytes32",
                    "name": "eventId",
                    "type": "bytes32"
                },
                {
                    "indexed": false,
                    "internalType": "address",
                    "name": "attendeeAddress",
                    "type": "address"
                }
            ],
            "name": "ConfirmedAttendee",
            "type": "event"
        },
        {
            "anonymous": false,
            "inputs": [
                {
                    "indexed": false,
                    "internalType": "bytes32",
                    "name": "eventId",
                    "type": "bytes32"
                }
            ],
            "name": "DepositsPaidOut",
            "type": "event"
        },
        {
            "anonymous": false,
            "inputs": [
                {
                    "indexed": false,
                    "internalType": "bytes32",
                    "name": "eventId",
                    "type": "bytes32"
                },
                {
                    "indexed": false,
                    "internalType": "address",
                    "name": "creatorAddress",
                    "type": "address"
                },
                {
                    "indexed": false,
                    "internalType": "uint256",
                    "name": "eventTimestamp",
                    "type": "uint256"
                },
                {
                    "indexed": false,
                    "internalType": "uint256",
                    "name": "maxCapacity",
                    "type": "uint256"
                },
                {
                    "indexed": false,
                    "internalType": "uint256",
                    "name": "fees",
                    "type": "uint256"
                },
                {
                    "indexed": false,
                    "internalType": "string",
                    "name": "eventName",
                    "type": "string"
                }
            ],
            "name": "NewEventCreated",
            "type": "event"
        },
        {
            "anonymous": false,
            "inputs": [
                {
                    "indexed": false,
                    "internalType": "bytes32",
                    "name": "eventId",
                    "type": "bytes32"
                },
                {
                    "indexed": false,
                    "internalType": "address",
                    "name": "attendeeAddress",
                    "type": "address"
                }
            ],
            "name": "NewRSVP",
            "type": "event"
        },
        {
            "inputs": [
                {
                    "internalType": "bytes32",
                    "name": "eventId",
                    "type": "bytes32"
                }
            ],
            "name": "confirmAllAttendees",
            "outputs": [],
            "stateMutability": "nonpayable",
            "type": "function"
        },
        {
            "inputs": [
                {
                    "internalType": "bytes32",
                    "name": "eventId",
                    "type": "bytes32"
                },
                {
                    "internalType": "address",
                    "name": "attendee",
                    "type": "address"
                }
            ],
            "name": "confirmAttendee",
            "outputs": [],
            "stateMutability": "nonpayable",
            "type": "function"
        },
        {
            "inputs": [
                {
                    "internalType": "uint256",
                    "name": "eventTimestamp",
                    "type": "uint256"
                },
                {
                    "internalType": "uint256",
                    "name": "fees",
                    "type": "uint256"
                },
                {
                    "internalType": "uint256",
                    "name": "maxCapacity",
                    "type": "uint256"
                },
                {
                    "internalType": "string",
                    "name": "eventName",
                    "type": "string"
                }
            ],
            "name": "createNewEvent",
            "outputs": [],
            "stateMutability": "nonpayable",
            "type": "function"
        },
        {
            "inputs": [
                {
                    "internalType": "bytes32",
                    "name": "eventId",
                    "type": "bytes32"
                }
            ],
            "name": "createNewRSVP",
            "outputs": [],
            "stateMutability": "payable",
            "type": "function"
        },
        {
            "inputs": [],
            "name": "getListingPrice",
            "outputs": [
                {
                    "internalType": "uint256",
                    "name": "",
                    "type": "uint256"
                }
            ],
            "stateMutability": "view",
            "type": "function"
        },
        {
            "inputs": [
                {
                    "internalType": "bytes32",
                    "name": "",
                    "type": "bytes32"
                }
            ],
            "name": "idToEvent",
            "outputs": [
                {
                    "internalType": "bytes32",
                    "name": "eventId",
                    "type": "bytes32"
                },
                {
                    "internalType": "string",
                    "name": "eventName",
                    "type": "string"
                },
                {
                    "internalType": "address",
                    "name": "eventOwner",
                    "type": "address"
                },
                {
                    "internalType": "uint256",
                    "name": "eventTimestamp",
                    "type": "uint256"
                },
                {
                    "internalType": "uint256",
                    "name": "fees",
                    "type": "uint256"
                },
                {
                    "internalType": "uint256",
                    "name": "maxCapacity",
                    "type": "uint256"
                },
                {
                    "internalType": "bool",
                    "name": "paidOut",
                    "type": "bool"
                }
            ],
            "stateMutability": "view",
            "type": "function"
        },
        {
            "inputs": [
                {
                    "internalType": "bytes32",
                    "name": "eventId",
                    "type": "bytes32"
                },
                {
                    "internalType": "address",
                    "name": "recipient",
                    "type": "address"
                }
            ],
            "name": "withdrawUnclaimedDeposits",
            "outputs": [],
            "stateMutability": "nonpayable",
            "type": "function"
        }
    ],
    "bytecode": "0x60806040526658d15e1762800060015534801561001b57600080fd5b506001600081905550612550806100336000396000f3fe60806040526004361061006f5760003560e01c80636dcdf2cd1161004e5780636dcdf2cd146100e4578063909ef0211461010d5780639164174614610150578063acdbe012146101795761006f565b806292098c1461007457806312e855851461009d57806317f0165a146100c8575b600080fd5b34801561008057600080fd5b5061009b600480360381019061009691906115ce565b6101a2565b005b3480156100a957600080fd5b506100b2610450565b6040516100bf9190611665565b60405180910390f35b6100e260048036038101906100dd91906116b6565b61045a565b005b3480156100f057600080fd5b5061010b60048036038101906101069190611741565b6106c7565b005b34801561011957600080fd5b50610134600480360381019061012f91906116b6565b610b9f565b604051610147979695949392919061184a565b60405180910390f35b34801561015c57600080fd5b5061017760048036038101906101729190611741565b610c96565b005b34801561018557600080fd5b506101a0600480360381019061019b91906116b6565b611150565b005b6002600054036101e7576040517f08c379a00000000000000000000000000000000000000000000000000000000081526004016101de9061190c565b60405180910390fd5b600260008190555060008411610232576040517f08c379a000000000000000000000000000000000000000000000000000000000815260040161022990611978565b60405180910390fd5b6000333087878760405160200161024d959493929190611a01565b60405160208183030381529060405280519060200120905060608060405180610120016040528084815260200186868080601f016020809104026020016040519081016040528093929190818152602001838380828437600081840152601f19601f8201169050808301925050505050505081526020013373ffffffffffffffffffffffffffffffffffffffff16815260200189815260200188815260200187815260200183815260200182815260200160001515815250600260008581526020019081526020016000206000820151816000015560208201518160010190816103379190611c9b565b5060408201518160020160006101000a81548173ffffffffffffffffffffffffffffffffffffffff021916908373ffffffffffffffffffffffffffffffffffffffff160217905550606082015181600301556080820151816004015560a0820151816005015560c08201518160060190805190602001906103b9929190611482565b5060e08201518160070190805190602001906103d6929190611482565b506101008201518160080160006101000a81548160ff0219169083151502179055509050507f2553138c3f9c9008f266dbdbe9fc64f5b71e098d06ef714a190a65a8b9fc6bf383338a898b8a8a6040516104369796959493929190611da9565b60405180910390a150505060016000819055505050505050565b6000600154905090565b6000600260008381526020019081526020016000209050806004015434146104b7576040517f08c379a00000000000000000000000000000000000000000000000000000000081526004016104ae90611e5f565b60405180910390fd5b80600301544211156104fe576040517f08c379a00000000000000000000000000000000000000000000000000000000081526004016104f590611ecb565b60405180910390fd5b806005015481600601805490501061054b576040517f08c379a000000000000000000000000000000000000000000000000000000000815260040161054290611f37565b60405180910390fd5b60005b81600601805490508160ff161015610624573373ffffffffffffffffffffffffffffffffffffffff16826006018260ff16815481106105905761058f611f57565b5b9060005260206000200160009054906101000a900473ffffffffffffffffffffffffffffffffffffffff1673ffffffffffffffffffffffffffffffffffffffff1603610611576040517f08c379a000000000000000000000000000000000000000000000000000000000815260040161060890611fd2565b60405180910390fd5b808061061c9061202e565b91505061054e565b5080600601339080600181540180825580915050600190039060005260206000200160009091909190916101000a81548173ffffffffffffffffffffffffffffffffffffffff021916908373ffffffffffffffffffffffffffffffffffffffff1602179055507fb79f4240bbdd272d98e02a5db7f0cf156e5fc000961c517670a26eeeec63ed9082336040516106bb929190612057565b60405180910390a15050565b60006002600084815260200190815260200160002090508060020160009054906101000a900473ffffffffffffffffffffffffffffffffffffffff1673ffffffffffffffffffffffffffffffffffffffff163373ffffffffffffffffffffffffffffffffffffffff1614610770576040517f08c379a0000000000000000000000000000000000000000000000000000000008152600401610767906120cc565b60405180910390fd5b600080600090505b82600601805490508160ff16101561085a578373ffffffffffffffffffffffffffffffffffffffff16836006018260ff16815481106107ba576107b9611f57565b5b9060005260206000200160009054906101000a900473ffffffffffffffffffffffffffffffffffffffff1673ffffffffffffffffffffffffffffffffffffffff160361084757826006018160ff168154811061081957610818611f57565b5b9060005260206000200160009054906101000a900473ffffffffffffffffffffffffffffffffffffffff1691505b80806108529061202e565b915050610778565b508273ffffffffffffffffffffffffffffffffffffffff168173ffffffffffffffffffffffffffffffffffffffff16146108c9576040517f08c379a00000000000000000000000000000000000000000000000000000000081526004016108c090612138565b60405180910390fd5b60005b82600701805490508160ff1610156109a2578373ffffffffffffffffffffffffffffffffffffffff16836007018260ff168154811061090e5761090d611f57565b5b9060005260206000200160009054906101000a900473ffffffffffffffffffffffffffffffffffffffff1673ffffffffffffffffffffffffffffffffffffffff160361098f576040517f08c379a0000000000000000000000000000000000000000000000000000000008152600401610986906121a4565b60405180910390fd5b808061099a9061202e565b9150506108cc565b50600015158260080160009054906101000a900460ff161515146109fb576040517f08c379a00000000000000000000000000000000000000000000000000000000081526004016109f290612210565b60405180910390fd5b81600701839080600181540180825580915050600190039060005260206000200160009091909190916101000a81548173ffffffffffffffffffffffffffffffffffffffff021916908373ffffffffffffffffffffffffffffffffffffffff16021790555060008373ffffffffffffffffffffffffffffffffffffffff168360040154604051610a8a90612261565b60006040518083038185875af1925050503d8060008114610ac7576040519150601f19603f3d011682016040523d82523d6000602084013e610acc565b606091505b5050905080610b1f5782600701805480610ae957610ae8612276565b5b6001900381819060005260206000200160006101000a81549073ffffffffffffffffffffffffffffffffffffffff021916905590555b80610b5f576040517f08c379a0000000000000000000000000000000000000000000000000000000008152600401610b56906122f1565b60405180910390fd5b7ff8d1583a733d83bdd3ef5464129d0a95a36d62b382d31c6d0467a61f4264381b8585604051610b90929190612057565b60405180910390a15050505050565b6002602052806000526040600020600091509050806000015490806001018054610bc890611abe565b80601f0160208091040260200160405190810160405280929190818152602001828054610bf490611abe565b8015610c415780601f10610c1657610100808354040283529160200191610c41565b820191906000526020600020905b815481529060010190602001808311610c2457829003601f168201915b5050505050908060020160009054906101000a900473ffffffffffffffffffffffffffffffffffffffff16908060030154908060040154908060050154908060080160009054906101000a900460ff16905087565b6000600260008481526020019081526020016000206040518061012001604052908160008201548152602001600182018054610cd190611abe565b80601f0160208091040260200160405190810160405280929190818152602001828054610cfd90611abe565b8015610d4a5780601f10610d1f57610100808354040283529160200191610d4a565b820191906000526020600020905b815481529060010190602001808311610d2d57829003601f168201915b505050505081526020016002820160009054906101000a900473ffffffffffffffffffffffffffffffffffffffff1673ffffffffffffffffffffffffffffffffffffffff1673ffffffffffffffffffffffffffffffffffffffff16815260200160038201548152602001600482015481526020016005820154815260200160068201805480602002602001604051908101604052809291908181526020018280548015610e4c57602002820191906000526020600020905b8160009054906101000a900473ffffffffffffffffffffffffffffffffffffffff1673ffffffffffffffffffffffffffffffffffffffff1681526020019060010190808311610e02575b5050505050815260200160078201805480602002602001604051908101604052809291908181526020018280548015610eda57602002820191906000526020600020905b8160009054906101000a900473ffffffffffffffffffffffffffffffffffffffff1673ffffffffffffffffffffffffffffffffffffffff1681526020019060010190808311610e90575b505050505081526020016008820160009054906101000a900460ff161515151581525050905080610100015115610f46576040517f08c379a0000000000000000000000000000000000000000000000000000000008152600401610f3d9061235d565b60405180910390fd5b62093a808160600151610f59919061237d565b421015610f9b576040517f08c379a0000000000000000000000000000000000000000000000000000000008152600401610f92906123fd565b60405180910390fd5b806040015173ffffffffffffffffffffffffffffffffffffffff163373ffffffffffffffffffffffffffffffffffffffff161461100d576040517f08c379a000000000000000000000000000000000000000000000000000000000815260040161100490612469565b60405180910390fd5b60008160e00151518260c00151516110259190612489565b9050600082608001518261103991906124bd565b905060018361010001901515908115158152505060008473ffffffffffffffffffffffffffffffffffffffff168260405161107390612261565b60006040518083038185875af1925050503d80600081146110b0576040519150601f19603f3d011682016040523d82523d6000602084013e6110b5565b606091505b50509050806110d1576000846101000190151590811515815250505b80611111576040517f08c379a0000000000000000000000000000000000000000000000000000000008152600401611108906122f1565b60405180910390fd5b7f393073ea1365f611c3d2f240c992960d2b99dc81715555d3fc40fc55ba80af9c8660405161114091906124ff565b60405180910390a1505050505050565b600060026000838152602001908152602001600020604051806101200160405290816000820154815260200160018201805461118b90611abe565b80601f01602080910402602001604051908101604052809291908181526020018280546111b790611abe565b80156112045780601f106111d957610100808354040283529160200191611204565b820191906000526020600020905b8154815290600101906020018083116111e757829003601f168201915b505050505081526020016002820160009054906101000a900473ffffffffffffffffffffffffffffffffffffffff1673ffffffffffffffffffffffffffffffffffffffff1673ffffffffffffffffffffffffffffffffffffffff1681526020016003820154815260200160048201548152602001600582015481526020016006820180548060200260200160405190810160405280929190818152602001828054801561130657602002820191906000526020600020905b8160009054906101000a900473ffffffffffffffffffffffffffffffffffffffff1673ffffffffffffffffffffffffffffffffffffffff16815260200190600101908083116112bc575b505050505081526020016007820180548060200260200160405190810160405280929190818152602001828054801561139457602002820191906000526020600020905b8160009054906101000a900473ffffffffffffffffffffffffffffffffffffffff1673ffffffffffffffffffffffffffffffffffffffff168152602001906001019080831161134a575b505050505081526020016008820160009054906101000a900460ff1615151515815250509050806040015173ffffffffffffffffffffffffffffffffffffffff163373ffffffffffffffffffffffffffffffffffffffff161461142c576040517f08c379a0000000000000000000000000000000000000000000000000000000008152600401611423906120cc565b60405180910390fd5b60005b8160c00151518160ff16101561147d5761146a838360c001518360ff168151811061145d5761145c611f57565b5b60200260200101516106c7565b80806114759061202e565b91505061142f565b505050565b8280548282559060005260206000209081019282156114fb579160200282015b828111156114fa5782518260006101000a81548173ffffffffffffffffffffffffffffffffffffffff021916908373ffffffffffffffffffffffffffffffffffffffff160217905550916020019190600101906114a2565b5b509050611508919061150c565b5090565b5b8082111561152557600081600090555060010161150d565b5090565b600080fd5b600080fd5b6000819050919050565b61154681611533565b811461155157600080fd5b50565b6000813590506115638161153d565b92915050565b600080fd5b600080fd5b600080fd5b60008083601f84011261158e5761158d611569565b5b8235905067ffffffffffffffff8111156115ab576115aa61156e565b5b6020830191508360018202830111156115c7576115c6611573565b5b9250929050565b6000806000806000608086880312156115ea576115e9611529565b5b60006115f888828901611554565b955050602061160988828901611554565b945050604061161a88828901611554565b935050606086013567ffffffffffffffff81111561163b5761163a61152e565b5b61164788828901611578565b92509250509295509295909350565b61165f81611533565b82525050565b600060208201905061167a6000830184611656565b92915050565b6000819050919050565b61169381611680565b811461169e57600080fd5b50565b6000813590506116b08161168a565b92915050565b6000602082840312156116cc576116cb611529565b5b60006116da848285016116a1565b91505092915050565b600073ffffffffffffffffffffffffffffffffffffffff82169050919050565b600061170e826116e3565b9050919050565b61171e81611703565b811461172957600080fd5b50565b60008135905061173b81611715565b92915050565b6000806040838503121561175857611757611529565b5b6000611766858286016116a1565b92505060206117778582860161172c565b9150509250929050565b61178a81611680565b82525050565b600081519050919050565b600082825260208201905092915050565b60005b838110156117ca5780820151818401526020810190506117af565b60008484015250505050565b6000601f19601f8301169050919050565b60006117f282611790565b6117fc818561179b565b935061180c8185602086016117ac565b611815816117d6565b840191505092915050565b61182981611703565b82525050565b60008115159050919050565b6118448161182f565b82525050565b600060e08201905061185f600083018a611781565b818103602083015261187181896117e7565b90506118806040830188611820565b61188d6060830187611656565b61189a6080830186611656565b6118a760a0830185611656565b6118b460c083018461183b565b98975050505050505050565b7f5265656e7472616e637947756172643a207265656e7472616e742063616c6c00600082015250565b60006118f6601f8361179b565b9150611901826118c0565b602082019050919050565b60006020820190508181036000830152611925816118e9565b9050919050565b7f46656573206d757374206265206174206c656173742031207765690000000000600082015250565b6000611962601b8361179b565b915061196d8261192c565b602082019050919050565b6000602082019050818103600083015261199181611955565b9050919050565b60008160601b9050919050565b60006119b082611998565b9050919050565b60006119c2826119a5565b9050919050565b6119da6119d582611703565b6119b7565b82525050565b6000819050919050565b6119fb6119f682611533565b6119e0565b82525050565b6000611a0d82886119c9565b601482019150611a1d82876119c9565b601482019150611a2d82866119ea565b602082019150611a3d82856119ea565b602082019150611a4d82846119ea565b6020820191508190509695505050505050565b7f4e487b7100000000000000000000000000000000000000000000000000000000600052604160045260246000fd5b7f4e487b7100000000000000000000000000000000000000000000000000000000600052602260045260246000fd5b60006002820490506001821680611ad657607f821691505b602082108103611ae957611ae8611a8f565b5b50919050565b60008190508160005260206000209050919050565b60006020601f8301049050919050565b600082821b905092915050565b600060088302611b517fffffffffffffffffffffffffffffffffffffffffffffffffffffffffffffffff82611b14565b611b5b8683611b14565b95508019841693508086168417925050509392505050565b6000819050919050565b6000611b98611b93611b8e84611533565b611b73565b611533565b9050919050565b6000819050919050565b611bb283611b7d565b611bc6611bbe82611b9f565b848454611b21565b825550505050565b600090565b611bdb611bce565b611be6818484611ba9565b505050565b5b81811015611c0a57611bff600082611bd3565b600181019050611bec565b5050565b601f821115611c4f57611c2081611aef565b611c2984611b04565b81016020851015611c38578190505b611c4c611c4485611b04565b830182611beb565b50505b505050565b600082821c905092915050565b6000611c7260001984600802611c54565b1980831691505092915050565b6000611c8b8383611c61565b9150826002028217905092915050565b611ca482611790565b67ffffffffffffffff811115611cbd57611cbc611a60565b5b611cc78254611abe565b611cd2828285611c0e565b600060209050601f831160018114611d055760008415611cf3578287015190505b611cfd8582611c7f565b865550611d65565b601f198416611d1386611aef565b60005b82811015611d3b57848901518255600182019150602085019450602081019050611d16565b86831015611d585784890151611d54601f891682611c61565b8355505b6001600288020188555050505b505050505050565b82818337600083830152505050565b6000611d88838561179b565b9350611d95838584611d6d565b611d9e836117d6565b840190509392505050565b600060c082019050611dbe600083018a611781565b611dcb6020830189611820565b611dd86040830188611656565b611de56060830187611656565b611df26080830186611656565b81810360a0830152611e05818486611d7c565b905098975050505050505050565b7f4e4f5420454e4f55474800000000000000000000000000000000000000000000600082015250565b6000611e49600a8361179b565b9150611e5482611e13565b602082019050919050565b60006020820190508181036000830152611e7881611e3c565b9050919050565b7f414c52454144592048415050454e454400000000000000000000000000000000600082015250565b6000611eb560108361179b565b9150611ec082611e7f565b602082019050919050565b60006020820190508181036000830152611ee481611ea8565b9050919050565b7f54686973206576656e7420686173207265616368656420636170616369747900600082015250565b6000611f21601f8361179b565b9150611f2c82611eeb565b602082019050919050565b60006020820190508181036000830152611f5081611f14565b9050919050565b7f4e487b7100000000000000000000000000000000000000000000000000000000600052603260045260246000fd5b7f414c524541445920434f4e4649524d4544000000000000000000000000000000600082015250565b6000611fbc60118361179b565b9150611fc782611f86565b602082019050919050565b60006020820190508181036000830152611feb81611faf565b9050919050565b7f4e487b7100000000000000000000000000000000000000000000000000000000600052601160045260246000fd5b600060ff82169050919050565b600061203982612021565b915060ff820361204c5761204b611ff2565b5b600182019050919050565b600060408201905061206c6000830185611781565b6120796020830184611820565b9392505050565b7f4e4f5420415554484f52495a4544000000000000000000000000000000000000600082015250565b60006120b6600e8361179b565b91506120c182612080565b602082019050919050565b600060208201905081810360008301526120e5816120a9565b9050919050565b7f4e4f205253565020544f20434f4e4649524d0000000000000000000000000000600082015250565b600061212260128361179b565b915061212d826120ec565b602082019050919050565b6000602082019050818103600083015261215181612115565b9050919050565b7f414c524541445920434c41494d45440000000000000000000000000000000000600082015250565b600061218e600f8361179b565b915061219982612158565b602082019050919050565b600060208201905081810360008301526121bd81612181565b9050919050565b7f414c52454144592050414944204f555400000000000000000000000000000000600082015250565b60006121fa60108361179b565b9150612205826121c4565b602082019050919050565b60006020820190508181036000830152612229816121ed565b9050919050565b600081905092915050565b50565b600061224b600083612230565b91506122568261223b565b600082019050919050565b600061226c8261223e565b9150819050919050565b7f4e487b7100000000000000000000000000000000000000000000000000000000600052603160045260246000fd5b7f4661696c656420746f2073656e64204574686572000000000000000000000000600082015250565b60006122db60148361179b565b91506122e6826122a5565b602082019050919050565b6000602082019050818103600083015261230a816122ce565b9050919050565b7f414c524541445920504149440000000000000000000000000000000000000000600082015250565b6000612347600c8361179b565b915061235282612311565b602082019050919050565b600060208201905081810360008301526123768161233a565b9050919050565b600061238882611533565b915061239383611533565b92508282019050808211156123ab576123aa611ff2565b5b92915050565b7f544f4f204541524c590000000000000000000000000000000000000000000000600082015250565b60006123e760098361179b565b91506123f2826123b1565b602082019050919050565b60006020820190508181036000830152612416816123da565b9050919050565b7f4d555354204245204556454e54204f574e455200000000000000000000000000600082015250565b600061245360138361179b565b915061245e8261241d565b602082019050919050565b6000602082019050818103600083015261248281612446565b9050919050565b600061249482611533565b915061249f83611533565b92508282039050818111156124b7576124b6611ff2565b5b92915050565b60006124c882611533565b91506124d383611533565b92508282026124e181611533565b915082820484148315176124f8576124f7611ff2565b5b5092915050565b60006020820190506125146000830184611781565b9291505056fea2646970667358221220cc91570de4fb3b8498466121879ecafccfd4f424c80a2fab8b24c3b473a9ca2164736f6c63430008110033",
    "linkReferences": {},
    "deployedLinkReferences": {}
}