{
  "_format": "hh-sol-artifact-1",
  "contractName": "Events",
  "sourceName": "contracts/Events.sol",
  "abi": [
    {
      "anonymous": false,
      "inputs": [
        {
          "indexed": false,
          "internalType": "bytes32",
          "name": "eventId",
          "type": "bytes32"
        },
        {
          "indexed": false,
          "internalType": "address",
          "name": "attendeeAddress",
          "type": "address"
        }
      ],
      "name": "ConfirmedAttendee",
      "type": "event"
    },
    {
      "anonymous": false,
      "inputs": [
        {
          "indexed": false,
          "internalType": "bytes32",
          "name": "eventId",
          "type": "bytes32"
        }
      ],
      "name": "DepositsPaidOut",
      "type": "event"
    },
    {
      "anonymous": false,
      "inputs": [
        {
          "indexed": false,
          "internalType": "bytes32",
          "name": "eventId",
          "type": "bytes32"
        },
        {
          "indexed": false,
          "internalType": "address",
          "name": "creatorAddress",
          "type": "address"
        },
        {
          "indexed": false,
          "internalType": "uint256",
          "name": "eventTimestamp",
          "type": "uint256"
        },
        {
          "indexed": false,
          "internalType": "uint256",
          "name": "maxCapacity",
          "type": "uint256"
        },
        {
          "indexed": false,
          "internalType": "uint256",
          "name": "fees",
          "type": "uint256"
        },
        {
          "indexed": false,
          "internalType": "string",
          "name": "eventName",
          "type": "string"
        }
      ],
      "name": "NewEventCreated",
      "type": "event"
    },
    {
      "anonymous": false,
      "inputs": [
        {
          "indexed": false,
          "internalType": "bytes32",
          "name": "eventId",
          "type": "bytes32"
        },
        {
          "indexed": false,
          "internalType": "address",
          "name": "attendeeAddress",
          "type": "address"
        }
      ],
      "name": "NewRSVP",
      "type": "event"
    },
    {
      "inputs": [
        {
          "internalType": "bytes32",
          "name": "eventId",
          "type": "bytes32"
        }
      ],
      "name": "confirmAllAttendees",
      "outputs": [],
      "stateMutability": "nonpayable",
      "type": "function"
    },
    {
      "inputs": [
        {
          "internalType": "bytes32",
          "name": "eventId",
          "type": "bytes32"
        },
        {
          "internalType": "address",
          "name": "attendee",
          "type": "address"
        }
      ],
      "name": "confirmAttendee",
      "outputs": [],
      "stateMutability": "nonpayable",
      "type": "function"
    },
    {
      "inputs": [
        {
          "internalType": "uint256",
          "name": "eventTimestamp",
          "type": "uint256"
        },
        {
          "internalType": "uint256",
          "name": "fees",
          "type": "uint256"
        },
        {
          "internalType": "uint256",
          "name": "maxCapacity",
          "type": "uint256"
        },
        {
          "internalType": "string",
          "name": "eventName",
          "type": "string"
        }
      ],
      "name": "createNewEvent",
      "outputs": [
        {
          "internalType": "bytes32",
          "name": "",
          "type": "bytes32"
        }
      ],
      "stateMutability": "payable",
      "type": "function"
    },
    {
      "inputs": [
        {
          "internalType": "bytes32",
          "name": "eventId",
          "type": "bytes32"
        }
      ],
      "name": "createNewRSVP",
      "outputs": [],
      "stateMutability": "payable",
      "type": "function"
    },
    {
      "inputs": [
        {
          "internalType": "bytes32",
          "name": "",
          "type": "bytes32"
        }
      ],
      "name": "idToEvent",
      "outputs": [
        {
          "internalType": "bytes32",
          "name": "eventId",
          "type": "bytes32"
        },
        {
          "internalType": "string",
          "name": "eventName",
          "type": "string"
        },
        {
          "internalType": "address",
          "name": "eventOwner",
          "type": "address"
        },
        {
          "internalType": "uint256",
          "name": "eventTimestamp",
          "type": "uint256"
        },
        {
          "internalType": "uint256",
          "name": "fees",
          "type": "uint256"
        },
        {
          "internalType": "uint256",
          "name": "maxCapacity",
          "type": "uint256"
        },
        {
          "internalType": "bool",
          "name": "paidOut",
          "type": "bool"
        }
      ],
      "stateMutability": "view",
      "type": "function"
    },
    {
      "inputs": [
        {
          "internalType": "bytes32",
          "name": "eventId",
          "type": "bytes32"
        },
        {
          "internalType": "address",
          "name": "recipient",
          "type": "address"
        }
      ],
      "name": "withdrawUnclaimedDeposits",
      "outputs": [],
      "stateMutability": "nonpayable",
      "type": "function"
    }
  ],
  "bytecode": "0x608060405234801561001057600080fd5b50612452806100206000396000f3fe6080604052600436106100545760003560e01c806292098c1461005957806317f0165a146100895780636dcdf2cd146100a5578063909ef021146100ce5780639164174614610111578063acdbe0121461013a575b600080fd5b610073600480360381019061006e9190611531565b610163565b60405161008091906115d2565b60405180910390f35b6100a3600480360381019061009e9190611619565b6103c1565b005b3480156100b157600080fd5b506100cc60048036038101906100c791906116a4565b61062d565b005b3480156100da57600080fd5b506100f560048036038101906100f09190611619565b610b04565b60405161010897969594939291906117ad565b60405180910390f35b34801561011d57600080fd5b50610138600480360381019061013391906116a4565b610bfb565b005b34801561014657600080fd5b50610161600480360381019061015c9190611619565b6110b4565b005b60008085116101a7576040517f08c379a000000000000000000000000000000000000000000000000000000000815260040161019e9061186f565b60405180910390fd5b600033308888886040516020016101c29594939291906118f8565b60405160208183030381529060405280519060200120905060608060405180610120016040528084815260200187878080601f016020809104026020016040519081016040528093929190818152602001838380828437600081840152601f19601f8201169050808301925050505050505081526020013373ffffffffffffffffffffffffffffffffffffffff1681526020018a8152602001898152602001888152602001838152602001828152602001600015158152506000808581526020019081526020016000206000820151816000015560208201518160010190816102ab9190611b92565b5060408201518160020160006101000a81548173ffffffffffffffffffffffffffffffffffffffff021916908373ffffffffffffffffffffffffffffffffffffffff160217905550606082015181600301556080820151816004015560a0820151816005015560c082015181600601908051906020019061032d9291906113e5565b5060e082015181600701908051906020019061034a9291906113e5565b506101008201518160080160006101000a81548160ff0219169083151502179055509050507f2553138c3f9c9008f266dbdbe9fc64f5b71e098d06ef714a190a65a8b9fc6bf383338b8a8c8b8b6040516103aa9796959493929190611ca0565b60405180910390a182935050505095945050505050565b600080600083815260200190815260200160002090508060040154341461041d576040517f08c379a000000000000000000000000000000000000000000000000000000000815260040161041490611d56565b60405180910390fd5b8060030154421115610464576040517f08c379a000000000000000000000000000000000000000000000000000000000815260040161045b90611dc2565b60405180910390fd5b80600501548160060180549050106104b1576040517f08c379a00000000000000000000000000000000000000000000000000000000081526004016104a890611e54565b60405180910390fd5b60005b81600601805490508160ff16101561058a573373ffffffffffffffffffffffffffffffffffffffff16826006018260ff16815481106104f6576104f5611e74565b5b9060005260206000200160009054906101000a900473ffffffffffffffffffffffffffffffffffffffff1673ffffffffffffffffffffffffffffffffffffffff1603610577576040517f08c379a000000000000000000000000000000000000000000000000000000000815260040161056e90611eef565b60405180910390fd5b808061058290611f4b565b9150506104b4565b5080600601339080600181540180825580915050600190039060005260206000200160009091909190916101000a81548173ffffffffffffffffffffffffffffffffffffffff021916908373ffffffffffffffffffffffffffffffffffffffff1602179055507fb79f4240bbdd272d98e02a5db7f0cf156e5fc000961c517670a26eeeec63ed908233604051610621929190611f74565b60405180910390a15050565b600080600084815260200190815260200160002090508060020160009054906101000a900473ffffffffffffffffffffffffffffffffffffffff1673ffffffffffffffffffffffffffffffffffffffff163373ffffffffffffffffffffffffffffffffffffffff16146106d5576040517f08c379a00000000000000000000000000000000000000000000000000000000081526004016106cc90611fe9565b60405180910390fd5b600080600090505b82600601805490508160ff1610156107bf578373ffffffffffffffffffffffffffffffffffffffff16836006018260ff168154811061071f5761071e611e74565b5b9060005260206000200160009054906101000a900473ffffffffffffffffffffffffffffffffffffffff1673ffffffffffffffffffffffffffffffffffffffff16036107ac57826006018160ff168154811061077e5761077d611e74565b5b9060005260206000200160009054906101000a900473ffffffffffffffffffffffffffffffffffffffff1691505b80806107b790611f4b565b9150506106dd565b508273ffffffffffffffffffffffffffffffffffffffff168173ffffffffffffffffffffffffffffffffffffffff161461082e576040517f08c379a000000000000000000000000000000000000000000000000000000000815260040161082590612055565b60405180910390fd5b60005b82600701805490508160ff161015610907578373ffffffffffffffffffffffffffffffffffffffff16836007018260ff168154811061087357610872611e74565b5b9060005260206000200160009054906101000a900473ffffffffffffffffffffffffffffffffffffffff1673ffffffffffffffffffffffffffffffffffffffff16036108f4576040517f08c379a00000000000000000000000000000000000000000000000000000000081526004016108eb906120c1565b60405180910390fd5b80806108ff90611f4b565b915050610831565b50600015158260080160009054906101000a900460ff16151514610960576040517f08c379a00000000000000000000000000000000000000000000000000000000081526004016109579061212d565b60405180910390fd5b81600701839080600181540180825580915050600190039060005260206000200160009091909190916101000a81548173ffffffffffffffffffffffffffffffffffffffff021916908373ffffffffffffffffffffffffffffffffffffffff16021790555060008373ffffffffffffffffffffffffffffffffffffffff1683600401546040516109ef9061217e565b60006040518083038185875af1925050503d8060008114610a2c576040519150601f19603f3d011682016040523d82523d6000602084013e610a31565b606091505b5050905080610a845782600701805480610a4e57610a4d612193565b5b6001900381819060005260206000200160006101000a81549073ffffffffffffffffffffffffffffffffffffffff021916905590555b80610ac4576040517f08c379a0000000000000000000000000000000000000000000000000000000008152600401610abb9061220e565b60405180910390fd5b7ff8d1583a733d83bdd3ef5464129d0a95a36d62b382d31c6d0467a61f4264381b8585604051610af5929190611f74565b60405180910390a15050505050565b6000602052806000526040600020600091509050806000015490806001018054610b2d906119b5565b80601f0160208091040260200160405190810160405280929190818152602001828054610b59906119b5565b8015610ba65780601f10610b7b57610100808354040283529160200191610ba6565b820191906000526020600020905b815481529060010190602001808311610b8957829003601f168201915b5050505050908060020160009054906101000a900473ffffffffffffffffffffffffffffffffffffffff16908060030154908060040154908060050154908060080160009054906101000a900460ff16905087565b60008060008481526020019081526020016000206040518061012001604052908160008201548152602001600182018054610c35906119b5565b80601f0160208091040260200160405190810160405280929190818152602001828054610c61906119b5565b8015610cae5780601f10610c8357610100808354040283529160200191610cae565b820191906000526020600020905b815481529060010190602001808311610c9157829003601f168201915b505050505081526020016002820160009054906101000a900473ffffffffffffffffffffffffffffffffffffffff1673ffffffffffffffffffffffffffffffffffffffff1673ffffffffffffffffffffffffffffffffffffffff16815260200160038201548152602001600482015481526020016005820154815260200160068201805480602002602001604051908101604052809291908181526020018280548015610db057602002820191906000526020600020905b8160009054906101000a900473ffffffffffffffffffffffffffffffffffffffff1673ffffffffffffffffffffffffffffffffffffffff1681526020019060010190808311610d66575b5050505050815260200160078201805480602002602001604051908101604052809291908181526020018280548015610e3e57602002820191906000526020600020905b8160009054906101000a900473ffffffffffffffffffffffffffffffffffffffff1673ffffffffffffffffffffffffffffffffffffffff1681526020019060010190808311610df4575b505050505081526020016008820160009054906101000a900460ff161515151581525050905080610100015115610eaa576040517f08c379a0000000000000000000000000000000000000000000000000000000008152600401610ea19061227a565b60405180910390fd5b62093a808160600151610ebd919061229a565b421015610eff576040517f08c379a0000000000000000000000000000000000000000000000000000000008152600401610ef69061231a565b60405180910390fd5b806040015173ffffffffffffffffffffffffffffffffffffffff163373ffffffffffffffffffffffffffffffffffffffff1614610f71576040517f08c379a0000000000000000000000000000000000000000000000000000000008152600401610f6890612386565b60405180910390fd5b60008160e00151518260c0015151610f8991906123a6565b90506000826080015182610f9d91906123da565b905060018361010001901515908115158152505060008473ffffffffffffffffffffffffffffffffffffffff1682604051610fd79061217e565b60006040518083038185875af1925050503d8060008114611014576040519150601f19603f3d011682016040523d82523d6000602084013e611019565b606091505b5050905080611035576000846101000190151590811515815250505b80611075576040517f08c379a000000000000000000000000000000000000000000000000000000000815260040161106c9061220e565b60405180910390fd5b7f393073ea1365f611c3d2f240c992960d2b99dc81715555d3fc40fc55ba80af9c866040516110a491906115d2565b60405180910390a1505050505050565b600080600083815260200190815260200160002060405180610120016040529081600082015481526020016001820180546110ee906119b5565b80601f016020809104026020016040519081016040528092919081815260200182805461111a906119b5565b80156111675780601f1061113c57610100808354040283529160200191611167565b820191906000526020600020905b81548152906001019060200180831161114a57829003601f168201915b505050505081526020016002820160009054906101000a900473ffffffffffffffffffffffffffffffffffffffff1673ffffffffffffffffffffffffffffffffffffffff1673ffffffffffffffffffffffffffffffffffffffff1681526020016003820154815260200160048201548152602001600582015481526020016006820180548060200260200160405190810160405280929190818152602001828054801561126957602002820191906000526020600020905b8160009054906101000a900473ffffffffffffffffffffffffffffffffffffffff1673ffffffffffffffffffffffffffffffffffffffff168152602001906001019080831161121f575b50505050508152602001600782018054806020026020016040519081016040528092919081815260200182805480156112f757602002820191906000526020600020905b8160009054906101000a900473ffffffffffffffffffffffffffffffffffffffff1673ffffffffffffffffffffffffffffffffffffffff16815260200190600101908083116112ad575b505050505081526020016008820160009054906101000a900460ff1615151515815250509050806040015173ffffffffffffffffffffffffffffffffffffffff163373ffffffffffffffffffffffffffffffffffffffff161461138f576040517f08c379a000000000000000000000000000000000000000000000000000000000815260040161138690611fe9565b60405180910390fd5b60005b8160c00151518160ff1610156113e0576113cd838360c001518360ff16815181106113c0576113bf611e74565b5b602002602001015161062d565b80806113d890611f4b565b915050611392565b505050565b82805482825590600052602060002090810192821561145e579160200282015b8281111561145d5782518260006101000a81548173ffffffffffffffffffffffffffffffffffffffff021916908373ffffffffffffffffffffffffffffffffffffffff16021790555091602001919060010190611405565b5b50905061146b919061146f565b5090565b5b80821115611488576000816000905550600101611470565b5090565b600080fd5b600080fd5b6000819050919050565b6114a981611496565b81146114b457600080fd5b50565b6000813590506114c6816114a0565b92915050565b600080fd5b600080fd5b600080fd5b60008083601f8401126114f1576114f06114cc565b5b8235905067ffffffffffffffff81111561150e5761150d6114d1565b5b60208301915083600182028301111561152a576115296114d6565b5b9250929050565b60008060008060006080868803121561154d5761154c61148c565b5b600061155b888289016114b7565b955050602061156c888289016114b7565b945050604061157d888289016114b7565b935050606086013567ffffffffffffffff81111561159e5761159d611491565b5b6115aa888289016114db565b92509250509295509295909350565b6000819050919050565b6115cc816115b9565b82525050565b60006020820190506115e760008301846115c3565b92915050565b6115f6816115b9565b811461160157600080fd5b50565b600081359050611613816115ed565b92915050565b60006020828403121561162f5761162e61148c565b5b600061163d84828501611604565b91505092915050565b600073ffffffffffffffffffffffffffffffffffffffff82169050919050565b600061167182611646565b9050919050565b61168181611666565b811461168c57600080fd5b50565b60008135905061169e81611678565b92915050565b600080604083850312156116bb576116ba61148c565b5b60006116c985828601611604565b92505060206116da8582860161168f565b9150509250929050565b600081519050919050565b600082825260208201905092915050565b60005b8381101561171e578082015181840152602081019050611703565b60008484015250505050565b6000601f19601f8301169050919050565b6000611746826116e4565b61175081856116ef565b9350611760818560208601611700565b6117698161172a565b840191505092915050565b61177d81611666565b82525050565b61178c81611496565b82525050565b60008115159050919050565b6117a781611792565b82525050565b600060e0820190506117c2600083018a6115c3565b81810360208301526117d4818961173b565b90506117e36040830188611774565b6117f06060830187611783565b6117fd6080830186611783565b61180a60a0830185611783565b61181760c083018461179e565b98975050505050505050565b7f46656573206d757374206265206174206c656173742031207765690000000000600082015250565b6000611859601b836116ef565b915061186482611823565b602082019050919050565b600060208201905081810360008301526118888161184c565b9050919050565b60008160601b9050919050565b60006118a78261188f565b9050919050565b60006118b98261189c565b9050919050565b6118d16118cc82611666565b6118ae565b82525050565b6000819050919050565b6118f26118ed82611496565b6118d7565b82525050565b600061190482886118c0565b60148201915061191482876118c0565b60148201915061192482866118e1565b60208201915061193482856118e1565b60208201915061194482846118e1565b6020820191508190509695505050505050565b7f4e487b7100000000000000000000000000000000000000000000000000000000600052604160045260246000fd5b7f4e487b7100000000000000000000000000000000000000000000000000000000600052602260045260246000fd5b600060028204905060018216806119cd57607f821691505b6020821081036119e0576119df611986565b5b50919050565b60008190508160005260206000209050919050565b60006020601f8301049050919050565b600082821b905092915050565b600060088302611a487fffffffffffffffffffffffffffffffffffffffffffffffffffffffffffffffff82611a0b565b611a528683611a0b565b95508019841693508086168417925050509392505050565b6000819050919050565b6000611a8f611a8a611a8584611496565b611a6a565b611496565b9050919050565b6000819050919050565b611aa983611a74565b611abd611ab582611a96565b848454611a18565b825550505050565b600090565b611ad2611ac5565b611add818484611aa0565b505050565b5b81811015611b0157611af6600082611aca565b600181019050611ae3565b5050565b601f821115611b4657611b17816119e6565b611b20846119fb565b81016020851015611b2f578190505b611b43611b3b856119fb565b830182611ae2565b50505b505050565b600082821c905092915050565b6000611b6960001984600802611b4b565b1980831691505092915050565b6000611b828383611b58565b9150826002028217905092915050565b611b9b826116e4565b67ffffffffffffffff811115611bb457611bb3611957565b5b611bbe82546119b5565b611bc9828285611b05565b600060209050601f831160018114611bfc5760008415611bea578287015190505b611bf48582611b76565b865550611c5c565b601f198416611c0a866119e6565b60005b82811015611c3257848901518255600182019150602085019450602081019050611c0d565b86831015611c4f5784890151611c4b601f891682611b58565b8355505b6001600288020188555050505b505050505050565b82818337600083830152505050565b6000611c7f83856116ef565b9350611c8c838584611c64565b611c958361172a565b840190509392505050565b600060c082019050611cb5600083018a6115c3565b611cc26020830189611774565b611ccf6040830188611783565b611cdc6060830187611783565b611ce96080830186611783565b81810360a0830152611cfc818486611c73565b905098975050505050505050565b7f4e4f5420454e4f55474800000000000000000000000000000000000000000000600082015250565b6000611d40600a836116ef565b9150611d4b82611d0a565b602082019050919050565b60006020820190508181036000830152611d6f81611d33565b9050919050565b7f414c52454144592048415050454e454400000000000000000000000000000000600082015250565b6000611dac6010836116ef565b9150611db782611d76565b602082019050919050565b60006020820190508181036000830152611ddb81611d9f565b9050919050565b7f54484953204556454e54204841532052454143484544204d415820434150414360008201527f4954590000000000000000000000000000000000000000000000000000000000602082015250565b6000611e3e6023836116ef565b9150611e4982611de2565b604082019050919050565b60006020820190508181036000830152611e6d81611e31565b9050919050565b7f4e487b7100000000000000000000000000000000000000000000000000000000600052603260045260246000fd5b7f414c524541445920434f4e4649524d4544000000000000000000000000000000600082015250565b6000611ed96011836116ef565b9150611ee482611ea3565b602082019050919050565b60006020820190508181036000830152611f0881611ecc565b9050919050565b7f4e487b7100000000000000000000000000000000000000000000000000000000600052601160045260246000fd5b600060ff82169050919050565b6000611f5682611f3e565b915060ff8203611f6957611f68611f0f565b5b600182019050919050565b6000604082019050611f8960008301856115c3565b611f966020830184611774565b9392505050565b7f4e4f5420415554484f52495a4544000000000000000000000000000000000000600082015250565b6000611fd3600e836116ef565b9150611fde82611f9d565b602082019050919050565b6000602082019050818103600083015261200281611fc6565b9050919050565b7f4e4f205253565020544f20434f4e4649524d0000000000000000000000000000600082015250565b600061203f6012836116ef565b915061204a82612009565b602082019050919050565b6000602082019050818103600083015261206e81612032565b9050919050565b7f414c524541445920434c41494d45440000000000000000000000000000000000600082015250565b60006120ab600f836116ef565b91506120b682612075565b602082019050919050565b600060208201905081810360008301526120da8161209e565b9050919050565b7f414c52454144592050414944204f555400000000000000000000000000000000600082015250565b60006121176010836116ef565b9150612122826120e1565b602082019050919050565b600060208201905081810360008301526121468161210a565b9050919050565b600081905092915050565b50565b600061216860008361214d565b915061217382612158565b600082019050919050565b60006121898261215b565b9150819050919050565b7f4e487b7100000000000000000000000000000000000000000000000000000000600052603160045260246000fd5b7f4641494c454420544f2053454e44204554484552000000000000000000000000600082015250565b60006121f86014836116ef565b9150612203826121c2565b602082019050919050565b60006020820190508181036000830152612227816121eb565b9050919050565b7f414c524541445920504149440000000000000000000000000000000000000000600082015250565b6000612264600c836116ef565b915061226f8261222e565b602082019050919050565b6000602082019050818103600083015261229381612257565b9050919050565b60006122a582611496565b91506122b083611496565b92508282019050808211156122c8576122c7611f0f565b5b92915050565b7f544f4f204541524c590000000000000000000000000000000000000000000000600082015250565b60006123046009836116ef565b915061230f826122ce565b602082019050919050565b60006020820190508181036000830152612333816122f7565b9050919050565b7f4d555354204245204556454e54204f574e455200000000000000000000000000600082015250565b60006123706013836116ef565b915061237b8261233a565b602082019050919050565b6000602082019050818103600083015261239f81612363565b9050919050565b60006123b182611496565b91506123bc83611496565b92508282039050818111156123d4576123d3611f0f565b5b92915050565b60006123e582611496565b91506123f083611496565b92508282026123fe81611496565b9150828204841483151761241557612414611f0f565b5b509291505056fea2646970667358221220c8abfd3fb2e0c328ecc776d1b3a70595a975964cd564780fe360acea3beb123c64736f6c63430008110033",
  "linkReferences": {},
  "deployedLinkReferences": {}
}